:060000000A128A110C280F
:10000800FE00030EF1000A08F2000A128A111828ED
:100018000A128A110F28F701F801F901FA01FB0108
:1000280083010A128A1178290B1C1B281C284F28C7
:100038000B10F801831203130618232824282528F7
:100048000814061C282829282E280130F0007008DA
:10005800F807081086183128322833288814861C97
:10006800362837283C280130F0007008F807881037
:1000780006193F28402841280815061D4428452808
:100088004A280130F0007008F80708117808F000D5
:100098007008FA00F801831203138C1D54285528A0
:1000A800AB281412141B59285A285E28941F5D285F
:1000B8005E2865281308F0007008F90014139413DB
:1000C800141683160313941A6A286B28882814199F
:1000D8006E286F288828831203131308F00070080D
:1000E800F9008C11141683160313141C7C287D2820
:1000F8007728831203131308F0007008F70085307F
:10010800F000F00B8528A828941A8B288C28A8289A
:10011800141D8F289028A828831203131308F000B1
:100128007008F9008316031314107A088312031356
:10013800930014168530F000F00BA02883160313E3
:100148001418A728A828A228831203138C11720850
:100158008A00710E8300FE0E7E0E090083160317B7
:1001680088018901831603138501073086008701FA
:10017800880109108312031385018601870188010C
:10018800890108300A128A1127210A128A11831656
:1001980003131614961416151510951015115730CB
:1001A80081008B170B178B150B10FA0150300A12B0
:1001B8008A115E210A128A11831203130609880024
:1001C80006030319E828E928F5280230060603196A
:1001D800EE28EF28F52804300606031DF428F52834
:1001E800F828FA01FA0A2129033006060319FD281E
:1001F800FE280A29053006060319032904290A29B5
:1002080006300606031D09290A290F290230F600BF
:100218007608FA00212907300606031D1429152936
:100228001A290330F6007608FA0021290608031D6A
:100238001E291F292129FA0121298811081288124B
:10024800081388130800F5004729831603130F08BD
:100258008F3940388F000F145D29831603130F0858
:100268008F3950388F000F145D29831603130F0838
:100278008F3960388F000F145D297030831603138F
:100288008F040F145D297508F300F4017408003A0F
:1002980003194F295D297308013A03192929033ADB
:1002A80003193129063A031939290C3A0319412946
:1002B8005D290800F3007308831603139300363092
:1002C80083120313940080308316031394000130C3
:1002D8009100871507168B170B17831203138C11C0
:1002E800831603138C1508000A128A11B2200A1209
:0A02F8008A117D290A128A110C28D0
:04400E00D420FF3F7C
:00000001FF
