:060000000A128A110C280F
:10000800FE00030EF1000A08F2000A128A111828ED
:100018000A128A110F28F601F701F801F901FA010D
:1000280083010A128A1132290B1C1B281C284F280D
:100038000B10F701831203130618232824282528F8
:100048000814061C282829282E280130F0007008DA
:10005800F707081086183128322833288814861C98
:10006800362837283C280130F0007008F707881038
:1000780006193F28402841280815061D4428452808
:100088004A280130F0007008F70708117708F000D7
:100098007008F900F701831203138C1D54285528A2
:1000A800AB281412141B59285A285E28941F5D285F
:1000B8005E2865281308F0007008F80014139413DC
:1000C800141683160313941A6A286B28882814199F
:1000D8006E286F288828831203131308F00070080D
:1000E800F8008C11141683160313141C7C287D2821
:1000F8007728831203131308F0007008F600853080
:10010800F000F00B8528A828941A8B288C28A8289A
:10011800141D8F289028A828831203131308F000B1
:100128007008F80083160313141079088312031358
:10013800930014168530F000F00BA02883160313E3
:100148001418A728A828A228831203138C11720850
:100158008A00710E8300FE0E7E0E0900F500D2287B
:10016800831603130F088F3940388F000F14E828BF
:10017800831603130F088F3950388F000F14E8289F
:10018800831603130F088F3960388F000F14E8287F
:100198007030831603138F040F14E8287508F300D2
:1001A800F4017408003A0319DA28E8287308013AB8
:1001B8000319B428033A0319BC28063A0319C428BA
:1001C8000C3A0319CC28E82808008316031788017D
:1001D800890183160313850107308600870188018A
:1001E800091083120313850186018701880189019B
:1001F80008300A128A11B2200A128A1183160313D0
:1002080016149614161515109510151157308100EF
:100218008B170B178B150B10F90150300A128A1126
:1002280018210A128A110800F300730883160313B1
:10023800930036308312031394008030831603131F
:10024800940001309100871507168B170B1783123E
:1002580003138C11831603138C1508000A128A11D4
:10026800E9200A128A1179088312031385003729B5
:060278000A128A110C2895
:04400E00D420FF3F7C
:00000001FF
