:060000000A128A110E280D
:10000800FE00030EF9000408FA000A08FB000A12B1
:100018008A112C280A128A111128F001F101F20123
:10002800F301F401F50183120313A001A101A20158
:10003800A301A401A501A601A701A801A901AA017C
:10004800AB01AC01AD01AE0183010A128A11B729D7
:10005800831203138C1D3128322888281412141B8C
:10006800362837283B28941F3A283B28422813086B
:10007800F8007808AE0014139413141683160313AB
:10008800941A47284828652814194B284C286528AD
:10009800831203131308F8007808AE008C111416A5
:1000A80083160313141C59285A285428831203133F
:1000B8001308F8007808AD008530F800F80B6228BE
:1000C8008528941A682869288528141D6C286D28A5
:1000D8008528831203131308F8007808AE008316E6
:1000E8000313141070088312031393001416853039
:1000F800F800F80B7D288316031314188428852824
:100108007F28831203138C110C1E8B288C289828A7
:100118000130F8007808F4070A128A11A1200A129F
:100128008A11831203130C127B088A007A08840050
:10013800790E8300FE0E7E0E0900C5287008303E39
:10014800831203139900E7282C30831203139900B4
:10015800E7287308303E831203139900E7287208D2
:10016800303E831203139900E7287108303E83124A
:1001780003139900E7280A30831203139900F40146
:10018800E7287408F600F7017708003A0319CD2824
:10019800E7287608013A0319A228033A0319A82880
:1001A800013A0319AD28073A0319A828013A031997
:1001B800B328033A0319A828013A0319B9280F3AB2
:1001C8000319BF28E728080083120313B1000A297E
:1001D800831603130F088F3940388F000F14202916
:1001E800831603130F088F3950388F000F142029F6
:1001F800831603130F088F3960388F000F142029D6
:100208007030831603138F040F1420293108AF00B0
:10021800B0013008003A0319122920292F08013AA1
:100228000319EC28033A0319F428063A0319FC28A1
:100238000C3A031904292029080083120313861C89
:10024800262927292B2905148510F301F30A861876
:100258002E292F29322905108514F301061D352969
:1002680036293A2905158511F201F20A06193D29A0
:100278003E29412905118515F201861D4429452984
:10028800492905168512F101F10A86194C294D29CB
:10029800502905128516F10172087307AF0071081D
:1002A8002F07B0003008F0000800831603178801F4
:1002B8008901831603130510851005118511051290
:1002C8008512861406158615831203138501860187
:1002D8008801890108300A128A11E8200A128A1155
:1002E8000A128A11A1210A128A1150300A128A119F
:1002F80085210A128A118B170B17831603130C1604
:10030800080083120313AF002F088316031393000A
:10031800363083120313940080308316031394003D
:1003280001309100871507168B170B1783120313DB
:100338008C11831603138C150800831603131812E7
:1003480018151813831603178711831603139A01B8
:100358003330990083120313981718131812831651
:100368000313981608000A128A1159210A128A11D1
:100378000A128A1121210A128A11BC290A128A1129
:020388000E283D
:04400E00D420FF3F7C
:00000001FF
