:060000000A128A110C280F
:10000800FE00030EF9000A08FA000A128A112928CC
:100018000A128A110F28F001F101F201F301F4012B
:10002800F501F601F70183120313A001A101A20152
:10003800A301A401A501A601A701A801A901AA017C
:10004800AB0183010A128A115529831203138C1DEF
:100058002E282F2885281412141B332834283828D2
:10006800941F372838283F281308F8007808F2002A
:1000780014139413141683160313941A442845284A
:100088006228141948284928622883120313130880
:10009800F8007808F2008C11141683160313141C48
:1000A800562857285128831203131308F800780894
:1000B800F1008530F800F80B5F288228941A65282B
:1000C80066288228141D69286A2882288312031347
:1000D8001308F8007808F200831603131410730845
:1000E80083120313930014168530F800F80B7A284E
:1000F800831603131418812882287C28831203137B
:100108008C117A088A00790E8300FE0E7E0E090093
:1001180083120313AE00AE28831603130F088F391A
:1001280040388F000F14C428831603130F088F3923
:1001380050388F000F14C428831603130F088F3903
:1001480060388F000F14C4287030831603138F048F
:100158000F14C4282E08AC00AD012D08003A03196D
:10016800B628C4282C08013A03199028033A031921
:100178009828063A0319A0280C3A0319A828C42875
:10018800080083120313861CCA28CB28CF2808141A
:100198008810F601F60A8618D228D328D62808101F
:1001A8008814F601061DD928DA28DE2808158811D2
:1001B800F501F50A0619E128E228E528081188154D
:1001C800F501861DE828E928ED2808168812F401AB
:1001D800F40A8619F028F128F42808128816F40180
:1001E80075087607AC0074082C07AD002D08F300DD
:1001F800080083160317880189010814831603135E
:1002080005148614061586150910891087018801BA
:100218008312031386018801890108300A128A11A2
:100228008C200A128A110A128A113F210A128A1195
:1002380050300A128A1123210A128A1108008312E7
:100248000313AC002C088316031393003630831273
:100258000313940080308316031394000130910037
:10026800871507168B170B17831203138C11831628
:1002780003138C150800831603139F171F129F1270
:100288003F30831203139F05C3309F05413083120B
:100298000313AC00AC0B4E295129831203131F140E
:1002A80008000A128A11FD200A128A110A128A11FC
:0E02B800C5200A128A115A290A128A110C282E
:04400E00D420FF3F7C
:00000001FF
