:060000000A128A110C280F
:10000800FE00030EF1000A08F2000A128A111628EF
:100018000A128A110F28F601F701F80183010A1262
:100028008A11F128831203138C1D1B281C2872289F
:100038001412141B202821282528941F2428252839
:100048002C281308F0007008F600141394131416E3
:1000580083160313941A312832284F281419352887
:1000680036284F28831203131308F0007008F6008F
:100078008C11141683160313141C432844283E2895
:10008800831203131308F0007008F7008530F0009E
:10009800F00B4C286F28941A522853286F28141DE7
:1000A800562857286F28831203131308F000700886
:1000B800F6008316031314107808831203139300B1
:1000C80014168530F000F00B6728831603131418F4
:1000D8006E286F286928831203138C1172088A000E
:1000E800710E8300FE0E7E0E0900F5009928831616
:1000F80003130F088F3940388F000F14AF28831669
:1001080003130F088F3950388F000F14AF28831648
:1001180003130F088F3960388F000F14AF28703021
:10012800831603138F040F14AF287508F300F40126
:100138007408003A0319A128AF287308013A031973
:100148007B28033A03198328063A03198B280C3AAB
:1001580003199328AF28080083160317880189011B
:10016800831603138501860187018801091083120C
:1001780003138501860187018801890108300A1265
:100188008A1179200A128A115730831603138100C5
:100198008B170B178B110B1060300A128A11D7209E
:1001A8000A128A110800F3007308831603139300D8
:1001B800363083120313940080308316031394009F
:1001C80001309100871507168B170B17831203133D
:1001D8008C11831603138C1508000A128A11B0209B
:1001E8000A128A11770C83120313031C05100318D3
:0A01F8000514F6280A128A110C28DB
:04400E00D420FF3F7C
:00000001FF
