:060000000A128A110C280F
:10000800FE00030EF1000A08F2000A128A11322BD0
:100018000A128A110F28F701F801F9018312031354
:10002800D401D501D601D701D80183010A128A115A
:10003800022D8312031331088039B2003208BB0045
:100048003108B2003207B3003308C200B01F2D28B0
:100058002E282F284214420803193328342844280C
:10006800420A031D3828392841280030B1000030E1
:10007800B0000030AF000030AE00B017B1014C281E
:100088000030B1000030B0000030AF000030AE00EA
:100098002D088039B2003208BB062D08B20032079D
:1000A800B3003308C300AC1F5A285B285C284314EC
:1000B80043080319602861287128430A031D65282D
:1000C80066286E280030AD000030AC000030AB0070
:1000D8000030AA00AC17AD0179280030AD0000301F
:1000E800AC000030AB000030AA002D082C042B0413
:1000F8002A04031D802881289A280030B100003086
:10010800B0000030AF000030AE008030B0047F3067
:10011800B1043B08B2003208B1043108AD00300820
:10012800AC002F08AB002E08AA00F9294208031DCD
:100138009E289F28A8280030AD000030AC00003071
:10014800AB000030AA00F9294208B200B301330815
:10015800B50043083202B400031CB50334087F3EDF
:10016800BC0035080318013E003EBD003108BA0046
:100178003008B9002F08B8002E08B7000030B100C9
:100188000030B0000030AF000030AE000030C100D9
:100198000030C0000030BF000030BE00C3011E297F
:1001A80043080319D828D928F9280130B2000310C8
:1001B800B70DB80DB90DBA0DB20BDB280130B2007E
:1001C8000310AE0DAF0DB00DB10DB20BE428C11F79
:1001D800EE28EF28F0282E140130B2000310BE0DCF
:1001E800BF0DC00DC10DB20BF2282D083A02031D38
:1001F80007292C083902031D07292B083802031D7B
:1002080007292A083702031C0A290B291A2941172A
:100218002A08B7022B08031C2B0FB8022C08031C52
:100228002C0FB9022D08031C2D0FBA020130B200A1
:100238003208C3071A304302031C23292429D4286F
:100248003A0839043804370403192B292C294B2977
:100258003E144B290130B2000310AE0DAF0DB00DA6
:10026800B10DB20B3029C11F3A293B293C292E1464
:100278000130B2000310BE0DBF0DC00DC10DB20B91
:100288003E29FF30BC070318BD0AFF30BD07B01F69
:100298004E294F292E29C301C11F532954297029DA
:1002A800FF303E05B200FF303F05B300FF30400588
:1002B800B4007F304105B5003508340433043204F6
:1002C8000319672968296B29C301C30A70292E1CE1
:1002D8006E296F297029682943080319742975291B
:1002E800A6290130AE07003003180130AF070030EF
:1002F80003180130B007003003180130B107311C72
:1003080086298729A6292E08B2002F08B3003008AD
:10031800B4003108B5000130B600350DB50CB40C89
:10032800B30CB20CB60B91293508B1003408B000F3
:100338003308AF003208AE000130BC070318BD0A0D
:100348000030BD073D08803AFF0080307F02031D62
:10035800AF29FF303C02031CB229B329C129FF3061
:1003680083120313BC000030BD000030B100003020
:10037800B0000030AF000030AE00831203133D0818
:10038800803AFF0080307F02031DCC2901303C02F7
:100398000318CF29D029DD2983120313BC01BD011D
:1003A8000030B1000030B0000030AF000030AE00C7
:1003B800BB01831203133C08B2003208C200421C7E
:1003C800E629E729E929B017ED297F30B20032087C
:1003D800B0054208B2000310320CB3003308B10074
:1003E8003B08B2003208B1049128080083120313B5
:1003F800A40024080319012A022A162AF61F052A2E
:10040800062A162A7309A6007409A7007509A80008
:100418007609A900A60A0319A70A0319A80A031945
:10042800A90A1E2A7608A9007508A8007408A7005A
:100438007308A6007608750474047304031D252A3E
:10044800262A2F2A0030F6000030F5000030F4008C
:100458000030F300B52A9630A0002008A500412AF4
:100468000130A0002008A50701300310A90CA80C32
:10047800A70CA60CFF3E031D392AFE302905031DD3
:10048800462A472A342A632A0130A0002008A507F3
:100498000130A607003003180130A7070030031801
:1004A8000130A807003003180130A90701300310F4
:1004B800A90CA80CA70CA60CFF3E031D5B2AFF3055
:1004C8002905031D682A692A482A752A0130A502C8
:1004D8000130A0000310A60DA70DA80DA90DA00BB3
:1004E8006E2AA81B782A792A7F2A02302502031847
:1004F8007E2A7F2A6A2A2518822A832A8B2AFF3095
:10050800A605FF30A7057F30A805FF30A905031011
:10051800A50C2508A000A101A201A3011830031011
:10052800A00DA10DA20DA30DFF3E031D932A2008C7
:10053800A6042108A7042208A8042308A90424085B
:100548000319A72AA82AAD2AF61FAB2AAC2AAD2A76
:10055800A9172908F6002808F5002708F400260836
:10056800F3000800031083120313460D470DC8005B
:100578004808CE004E08031DC22AC32ACC2A0030E0
:10058800C7000030C6000030C5000030C400312B61
:100598004408C8004508C9004608CA004708CB00F7
:1005A8001F300310CB0CCA0CC90CC80CFF3E031D2E
:1005B800D52A4808CC004C08CD00C617FF30C40522
:1005C800FF30C505FF30C6050030C7059630CE029E
:1005D800CE1FEF2AF02A0A2B4E08803A973E0318BE
:1005E800F62AF72AF82AC32A01300310C70CC60CCA
:1005F800C50CC40CFF3E031DF92A0130C800480889
:10060800CE07031D082B092BF82A212B20304E0278
:10061800031C0F2B102B1C2BC32A0130C8000310FE
:10062800C40DC50DC60DC70DC80B132B0130CE0266
:100638004E08031D202B212B112B4D080319252BA8
:10064800262B312BC409C509C609C709C40A0319D1
:10065800C50A0319C60A0319C70A08000B1C352B5B
:10066800362B432BFD30831203130606031D3D2B47
:100678003E2B412BF901F90A422BF9010B10831289
:1006880003138C1D482B492B9F2B1412141B4D2B25
:100698004E2B522B941F512B522B592B1308F00021
:1006A8007008F70014139413141683160313941A7E
:1006B8005E2B5F2B7C2B1419622B632B7C2B8312F4
:1006C80003131308F0007008F7008C111416831632
:1006D8000313141C702B712B6B2B83120313130839
:1006E800F0007008F7008530F000F00B792B9C2B98
:1006F800941A7F2B802B9C2B141D832B842B9C2BD3
:10070800831203131308F0007008D500831603132F
:100718001410780883120313930014168530F00020
:10072800F00B942B8316031314189B2B9C2B962BDE
:10073800831203138C1172088A00710E8300FE0E57
:100748007E0E09007903031DAA2BAB2BED2B831218
:1007580003138618B02BB12BED2B7708031DB52B8F
:10076800B62BED2B0130F3007308D807F901DA2B0B
:1007780009140330F4009730F300F30BC12BF40B8A
:10078800C12BC62B831203130910012C0914063040
:10079800F4003030F300F30BCF2BF40BCF2B000019
:1007A800831203130910012CD801012C5808F300F7
:1007B800F4017408003A0319E22B012C7308003A7B
:1007C8000319BC2B013A0319CA2B033A0319D82B76
:1007D800012C7703031DF12BF22B012C8312031339
:1007E80009140330F4009730F300F30BF92BF40BE2
:1007F800F92BFE2B8312031309100800831203132D
:100808005608CF00D001D101D2015208F600510894
:10081800F5005008F4004F08F30001300A128A115D
:10082800FA210A128A11760883120313B100750897
:10083800B0007408AF007308AE004030AD0002305D
:10084800AC00F130AB00AA30AA000A128A111D20B0
:100858000A128A11831203132D08C7002C08C60038
:100868002B08C5002A08C4000A128A11B6220A12E7
:100878008A11831203134408D3005308F8001D306B
:100888007802031C482C492C532C32307802031868
:100898004E2C4F2C532C831603130711562C8316FA
:1008A8000313071508008316031788018901081424
:1008B8008316031308108614071188010910831280
:1008C8000313860187018801890108300A128A11F9
:1008D80095240A128A110A128A111A250A128A11F3
:1008E8008316031307153F30831203139705170860
:1008F800F0390C3897000F309500CF3097058316E4
:1009080003138113951460300A128A11E8240A121D
:100918008A118B170B178B150B108316031396145C
:100928000800F500B52C831603130F088F394038DB
:100938008F000F14CB2C831603130F088F395038F0
:100948008F000F14CB2C831603130F088F396038D0
:100958008F000F14CB2C7030831603138F040F14E1
:10096800CB2C7508F300F4017408003A0319BD2C68
:10097800CB2C7308013A0319972C033A03199F2CBF
:10098800063A0319A72C0C3A0319AF2CCB2C0800F4
:10099800831203139F18D12CD22CE72CD70183166E
:1009A80003131E08F300730883120313D6000330E1
:1009B800F4009730F300F30BDF2CF40BDF2CE42C5E
:1009C800831203139F140800F3007308831603139C
:1009D8009300363083120313940080308316031378
:1009E800940001309100871507168B170B17831297
:1009F80003138C11831603138C1508000A128A112D
:100A080057240A128A110A128A11A6230A128A1175
:100A18000A128A11CC240A128A110A128A11022493
:100A28000A128A11072D0A128A110C288316031339
:100A38009F171F129F123F30831203139F05C33065
:100A48009F054230F300F30B272D00008312031398
:040A58001F1408005F
:04400E00D420FF3F7C
:00000001FF
