:060000000A128A11F32F21
:10009800F0007008831203138800080064008001D0
:1000A800840A040603190034040653280A128A1124
:1000B80076200A128A1183160313111408000A12F3
:1000C8008A1176200A128A11831603131115080063
:1000D8000A128A1176200A128A11700883120313F1
:1000E800930008008316031314197B287C287628AC
:1000F80011081F39031D8128822876280800F2007C
:1001080072080A128A114C200A128A1183120313E8
:100118008914091109140D30F100F10B912883128B
:10012800031309100800F30073080A128A114C20FF
:100138000A128A118312031389100911091407304E
:10014800F2007D30F100F10BA728F20BA7288312EB
:1001580003130910080038300A128A1197200A126E
:100168008A1106300A128A1197200A128A110C3055
:100178000A128A1197200A128A1180300A128A11EB
:1001880097200A128A110800F600F401F501DD280B
:1001980074087607F3007308840000080A128A11AD
:1001A80083200A128A110130F4070318F50A003077
:1001B800F50774087607F3007308840083130008B2
:1001C800031DE728E828CC280800F6007603031D5D
:1001D800EE28EF28FB2874087F3EF5007508F70025
:1001E80077080A128A1197200A128A110C290230FC
:1001F8007606031D002901290C297408BF3EF50065
:100208007508F70077080A128A1197200A128A11CE
:1002180008000A128A1176200A128A11831603131B
:1002280091150A128A1176200A128A118312031371
:100238001308F200F3017208F4007308F5000A12BB
:100248008A1176200A128A1170037104031D2D2960
:100258002E29322983160313911235298316031385
:10026800911611167508F1007408F0000800F200E4
:100278005B29831603130F088F3940388F000F143A
:100288007129831603130F088F3950388F000F1404
:100298007129831603130F088F3960388F000F14E4
:1002A80071297030831603138F040F147129720893
:1002B800F000F1017108003A0319632971297008E7
:1002C800013A03193D29033A03194529063A031946
:1002D8004D290C3A03195529712908002830831231
:1002E8000313940083160313910183120313200848
:1002F800A4002108A5002208A6002308A7000230B0
:100308000310A40DA50DA60DA70DFF3E031D8429FE
:100318002708F3002608F2002508F1002408F00059
:100328000030F7007A30F6001230F5000030F400A3
:100338000A128A1171220A128A117008FF3E831666
:10034800031393009401871507160800F200C029CB
:100358003030E8293130E8293230E8293330E829CB
:100368003430E8293530E8293630E8293730E829AB
:100378003830E8293930E8297208F000F1017108AD
:10038800003A0319C829AC297008003A0319AC29A6
:10039800013A0319AE29033A0319B029013A03199E
:1003A800B229073A0319B429013A0319B629033ABD
:1003B8000319B829013A0319BA290F3A0319BC29B4
:1003C800013A0319BE29AC2908005030F000700822
:1003D80083120313A0004130F0007008A1005230CE
:1003E800F0007008A2005130F0007008A3005530EA
:1003F800F0007008A4004530F0007008A5004F30E8
:10040800F0007008A6005330F0007008A7003A30DA
:10041800F0007008A8002030F0007008A900303003
:10042800F0007008AA004008F0007008AB00203007
:10043800F0007008AC002030F0007008AD002030EB
:10044800F0007008AE002030F0007008AF002030D7
:100458000800831203133A08F0007008A000390856
:10046800F0007008A1003808F0007008A2002E30D3
:10047800F0007008A3002030F0007008A4003608CF
:10048800F0007008A5003708F0007008A6003A30A0
:10049800F0007008A7003408F0007008A8003508BC
:1004A800F0007008A9002030F0007008AA00203081
:1004B800F0007008AB002030F0007008AC0020306D
:1004C800F0007008AD002030F0007008AE00203059
:1004D800F0007008AF00203008000030FC00003049
:1004E800FB000030FA000030F90073087204710450
:1004F80070040319802A812ACE2AFD01FD0A912A57
:100508000130F8000310F00DF10DF20DF30DF80BAA
:10051800862A0130F8007808FD07F31F942A952AE7
:10052800842A0130F8000310F90DFA0DFB0DFC0DBB
:10053800F80B972A73087702031DAC2A7208760213
:10054800031DAC2A71087502031DAC2A70087402D9
:10055800031CAF2AB02ABF2A7008F4027108031CD2
:10056800710FF5027208031C720FF6027308031C60
:10057800730FF702791401300310F30CF20CF10C2D
:10058800F00CFF3E031DC02A0130FD02031DCD2AD9
:10059800CE2A952A7C08F3007B08F2007A08F1003D
:1005A8007908F0000800831603178801890183166B
:1005B80003138501860188018901831203138501CC
:1005C8008601880108300A128A113B210A128A1111
:1005D800003083120313A3000130A2008630A1006B
:1005E800A030A0000A128A1172210A128A110A1276
:1005F8008A115A200A128A11D030F0000030F10016
:100608000A128A116C200A128A110230F000003096
:10061800F1000A128A116C200A128A110630F000C1
:100628000030F1000A128A116C200A128A110A128B
:100638008A1163200A128A111A3083120313A9003F
:10064800F730A800A80B262BA90B262B2B2B0A1258
:100658008A115A200A128A11D130F0000030F100B4
:100668000A128A116C200A128A110030F000F10077
:100678000A128A110D210A128A11700883120313B3
:10068800A8002808BF000A128A1163200A128A11DA
:100698001A3083120313A900F730A800A80B522BB5
:1006A800A90B522B572B0A128A115A200A128A11A7
:1006B800D030F0000030F1000A128A116C200A12C2
:1006C8008A110130F0000030F1000A128A116C2002
:1006D8000A128A115930F0000030F1000A128A110A
:1006E8006C200A128A110A128A1163200A128A11CE
:1006F8001A3083120313A900F730A800A80B822B25
:10070800A90B822B872B0A128A115A200A128A11E6
:10071800D130F0000030F1000A128A116C200A1260
:100728008A110030F000F1000A128A110D210A1214
:100738008A11700883120313A8002808BF000A1240
:100748008A1163200A128A111A3083120313A9002E
:10075800F730A800A80BAE2BA90BAE2BB32B0A12AF
:100768008A115A200A128A11D030F0000030F100A4
:100778000A128A116C200A128A110030F000F10066
:100788000A128A116C200A128A115830F0000030BF
:10079800F1000A128A116C200A128A110A128A11AF
:1007A80063200A128A111A3083120313A900F73042
:1007B800A800A80BDD2BA90BDD2BE22B0A128A114E
:1007C8005A200A128A11D130F0000030F1000A12C2
:1007D8008A116C200A128A110030F000F1000A1206
:1007E8008A110D210A128A11700883120313A800B6
:1007F8002808BF000A128A1163200A128A111A30C7
:1008080083120313A900F730A800A80B092CA90B21
:10081800092C0E2C0A128A115A200A128A11D03079
:10082800F0000030F1000A128A116C200A128A11B5
:100838000330F0000030F1000A128A116C200A120D
:100848008A110630F0000030F1000A128A116C207B
:100858000A128A110A128A1163200A128A111A309E
:1008680083120313A900F730A800A80B392CA90B91
:10087800392C3E2C0A128A115A200A128A11D130B8
:10088800F0000030F1000A128A116C200A128A1155
:100898000030F000F1000A128A110D210A128A11A3
:1008A800700883120313A8002808BF000A128A11CF
:1008B80063200A128A111A3083120313A900F73031
:1008C800A800A80B652CA90B652C6A2C08008312BC
:1008D800031341080A128A11AA210A128A11F30085
:1008E800730883120313C0003E03031D7C2C7D2C68
:1008F8008A2C4C30F3007308BA007530F300730883
:10090800B9006E30F3007308B800FE2C02303E06C2
:10091800031D8F2C902C9D2C4D30F3007308BA00CA
:100928006130F3007308B9007230F3007308B8003F
:10093800FE2C03303E06031DA22CA32CB02C4D30F8
:10094800F3007308BA006930F3007308B900653022
:10095800F3007308B800FE2C04303E06031DB52CC6
:10096800B62CC32C4A30F3007308BA007530F30074
:100978007308B9006530F3007308B800FE2C053021
:100988003E06031DC82CC92CD62C5630F30073081C
:10099800BA006930F3007308B9006530F3007308D2
:1009A800B800FE2C06303E06031DDB2CDC2CE92C9F
:1009B8005330F3007308BA006130F3007308B900CC
:1009C8006230F3007308B800FE2C07303E06031DA2
:1009D800EE2CEF2CFE2C4430F3007308BA006F3075
:1009E800F3007308B9006D30F3007308B800B30161
:1009F800B30AFE2C0A303D020318032D042D282DBE
:100A08003030F3007308B6003D080A128A11AA2193
:100A18000A128A11F300730883120313B700073010
:100A28003D020318182D192D1E2D06148614B30126
:100A3800B30A7B2D0610861007303E060319252DB4
:100A4800262D7B2DB3017B2D1A303D0203182D2D49
:100A58002E2D552D3130F3007308B6003D08F03EB9
:100A6800F3007308B20032080A128A11AA210A1286
:100A78008A11F300730883120313B70007303E0688
:100A88000319472D482D492DB30108303202031CA4
:100A98004E2D4F2D522D061486147B2D06108610D0
:100AA8007B2D3230F3007308B6003D08E03EF300BA
:100AB8007308B20032080A128A11AA210A128A118E
:100AC800F300730883120313B70006148614023068
:100AD8003202031C702D712D742DB301B30A7B2DC6
:100AE80007303E060319792D7A2D7B2D262D0A30E5
:100AF8003C020318802D812D912D3030F3007308AE
:100B0800B4003C080A128A11AA210A128A11F300B9
:100B1800730883120313B500182E1A303C02031809
:100B2800962D972DAC2D3130F3007308B4003C0896
:100B3800F03EF3007308B20032080A128A11AA21A3
:100B48000A128A11F300730883120313B500182ED2
:100B58002A303C020318B12DB22DC72D3230F300D4
:100B68007308B4003C08E03EF3007308B200320892
:100B78000A128A11AA210A128A11F3007308831231
:100B88000313B500182E3A303C020318CC2DCD2D96
:100B9800E22D3330F3007308B4003C08D03EF30074
:100BA8007308B20032080A128A11AA210A128A119D
:100BB800F300730883120313B500182E4A303C0261
:100BC8000318E72DE82DFD2D3430F3007308B40029
:100BD8003C08C03EF3007308B20032080A128A11BA
:100BE800AA210A128A11F300730883120313B500AD
:100BF800182E5A303C020318022E032E182E3530B8
:100C0800F3007308B4003C08B03EF3007308B20068
:100C180032080A128A11AA210A128A11F3007308EB
:100C280083120313B500182E08000A128A11D7225E
:100C38000A128A110A128A11AF200A128A11F401C3
:100C4800F40A01300A128A11E9200A128A110A12DA
:100C58008A112D220A128A110A128A11C8200A1230
:100C68008A11F401F40A02300A128A11E9200A12E0
:100C78008A110A128A11E9210A128A110A128A11A2
:100C8800C8200A128A110A128A116B240A128A11C0
:100C98000A128A115A200A128A115030F0000030C4
:100CA800F1000A128A116C200A128A110030F00031
:100CB800F1000A128A116C200A128A110A128A118A
:100CC80063200A128A111A3083120313B100F73015
:100CD800B000B00B6D2EB10B6D2E722E0A128A1158
:100CE8005A200A128A115130F0000030F1000A121D
:100CF8008A116C200A128A110030F000F1000A12E1
:100D08008A110D210A128A11700883120313B00088
:100D18003008C1000A128A1163200A128A111A3097
:100D280083120313B100F730B000B00B992EB10B4A
:100D3800992E9E2E0A128A115A200A128A116030A0
:100D4800F0000030F1000A128A116C200A128A1190
:100D5800831203133308B000B1013008F0003108E2
:100D6800F1000A128A116C200A128A110A128A11D9
:100D780063200A128A111A3083120313B100F73064
:100D8800B000B00BC52EB10BC52ECA2E0A128A119F
:100D98005A200A128A116130F0000030F1000A125C
:100DA8008A116C200A128A110030F000F1000A1230
:100DB8008A110D210A128A11700883120313B000D8
:100DC8003008BF000A128A1163200A128A111A30E9
:100DD80083120313B100F730B000B00BF12EB10B42
:100DE800F12EF62E0A128A115A200A128A11D030D0
:100DF800F0000030F1000A128A116C200A128A11E0
:100E08000230F0000030F1000A128A116C200A1238
:100E18008A110A128A1163200A128A111A3083125F
:100E28000313B100F730B000B00B182FB10B182F17
:100E38001D2F0A128A115A200A128A11D130F00085
:100E48000030F1000A128A116C200A128A1100304F
:100E5800F000F1000A128A110D210A128A11700895
:100E680083120313B0003008BD000A128A116320F0
:100E78000A128A111A3083120313B100F730B00036
:100E8800B00B442FB10B442F492F0A128A115A2054
:100E98000A128A11D030F0000030F1000A128A11CB
:100EA8006C200A128A110330F0000030F1000A1297
:100EB8008A116C200A128A110A128A1163200A12F6
:100EC8008A111A3083120313B100F730B000B00B47
:100ED8006B2FB10B6B2F702F0A128A115A200A122E
:100EE8008A11D130F0000030F1000A128A116C200A
:100EF8000A128A110030F000F1000A128A110D213D
:100F08000A128A11700883120313B0003008BE0059
:100F18000A128A1163200A128A111A3083120313E3
:100F2800B100F730B000B00B972FB10B972F9C2F63
:100F38000A128A115A200A128A11D030F0000030A1
:100F4800F1000A128A116C200A128A110130F0008D
:100F58000030F1000A128A116C200A128A110A1252
:100F68008A1163200A128A111A3083120313B100FE
:100F7800F730B000B00BBE2FB10BBE2FC32F0A1233
:100F88008A115A200A128A11D130F0000030F1007B
:100F98000A128A116C200A128A110030F000F1003E
:100FA8000A128A110D210A128A117008831203137A
:100FB800B0003008BC000A128A1163200A128A1194
:100FC8001A3083120313B100F730B000B00BEA2FC8
:100FD800B10BEA2FEF2F232E0A128A110028831350
:100FE8003230840042300A128A1152200A128A11C1
:080FF80083010A128A11192E6F
:04400E00D420FF3F7C
:00000001FF
