:060000000A128A11EC2F28
:10027400F000700883120313880008000A128A1120
:100284005C210A128A1183160313111408000A123E
:100294008A115C210A128A118316031311150800AE
:1002A4000A128A115C210A128A117008831203133C
:1002B40093000800831603131419612962295C2929
:1002C40011081F39031D672968295C290800F200F9
:1002D40072080A128A113A210A128A11831203132C
:1002E4008914091109140D30F100F10B77298312D7
:1002F400031309100800F30073080A128A113A2143
:100304000A128A1183120313891009110914073080
:10031400F2007D30F100F10B8D29F20B8D2983124F
:1003240003130910080038300A128A117D210A12B9
:100334008A1106300A128A117D210A128A110C30A0
:100344000A128A117D210A128A1180300A128A1136
:100354007D210A128A110800F600F401F501C3296F
:1003640074087607F3007308840000080A128A11DF
:1003740069210A128A110130F4070318F50A0030C2
:10038400F50774087607F3007308840083130008E4
:10039400031DCD29CE29B2290800F6007603031DDA
:1003A400D429D529E12974087F3EF5007508F700A2
:1003B40077080A128A117D210A128A11F229023061
:1003C4007606031DE629E729F2297408BF3EF500E5
:1003D4007508F70077080A128A117D210A128A111A
:1003E40008000A128A115C210A128A118316031367
:1003F40091150A128A115C210A128A1183120313BD
:100404001308F200F3017208F4007308F5000A12ED
:100414008A115C210A128A1170037104031D132AC4
:10042400142A182A8316031391121B2A8316031302
:10043400911611167508F1007408F0000800F20016
:10044400412A831603130F088F3940388F000F1485
:10045400572A831603130F088F3950388F000F144F
:10046400572A831603130F088F3960388F000F142F
:10047400572A7030831603138F040F14572A7208F7
:10048400F000F1017108003A0319492A572A70084B
:10049400013A0319232A033A03192B2A063A0319AA
:1004A400332A0C3A03193B2A572A080028308312AE
:1004B400031394008316031391018312031320087A
:1004C400A4002108A5002208A6002308A7000230E2
:1004D4000310A40DA50DA60DA70DFF3E031D6A2A4A
:1004E4002708F3002608F2002508F1002408F0008C
:1004F4000030F7007A30F6001230F5000030F400D6
:100504000A128A1157230A128A117008FF3E8316B1
:10051400031393009401871507160800F200A62A16
:100524003030CE2A3130CE2A3230CE2A3330CE2A61
:100534003430CE2A3530CE2A3630CE2A3730CE2A41
:100544003830CE2A3930CE2A7208F000F101710811
:10055400003A0319AE2A922A7008003A0319922A23
:10056400013A0319942A033A0319962A013A031902
:10057400982A073A03199A2A013A03199C2A033A3A
:1005840003199E2A013A0319A02A0F3A0319A22A31
:10059400013A0319A42A922A08005030F000700886
:1005A40083120313A0004130F0007008A100523000
:1005B400F0007008A2005130F0007008A30055301C
:1005C400F0007008A4004530F0007008A5004F301A
:1005D400F0007008A6005330F0007008A7003A300D
:1005E400F0007008A8002030F0007008A900303036
:1005F400F0007008AA003E08F0007008AB0020303C
:10060400F0007008AC002030F0007008AD0020301D
:10061400F0007008AE002030F0007008AF00203009
:100624000800831203133908F0007008A00038088A
:10063400F0007008A1003708F0007008A2002E3006
:10064400F0007008A3002030F0007008A400350802
:10065400F0007008A5003608F0007008A6003A30D3
:10066400F0007008A7003308F0007008A8003408F0
:10067400F0007008A9002030F0007008AA002030B3
:10068400F0007008AB002030F0007008AC0020309F
:10069400F0007008AD002030F0007008AE0020308B
:1006A400F0007008AF00203008000030FC0000307B
:1006B400FB000030FA000030F90073087204710482
:1006C40070040319662B672BB42BFD01FD0A772BED
:1006D4000130F8000310F00DF10DF20DF30DF80BDD
:1006E4006C2B0130F8007808FD07F31F7A2B7B2B65
:1006F4006A2B0130F8000310F90DFA0DFB0DFC0D07
:10070400F80B7D2B73087702031D922B7208760277
:10071400031D922B71087502031D922B700874023D
:10072400031C952B962BA52B7008F4027108031C4F
:10073400710FF5027208031C720FF6027308031C92
:10074400730FF702791401300310F30CF20CF10C5F
:10075400F00CFF3E031DA62B0130FD02031DB32B3D
:10076400B42B7B2B7C08F3007B08F2007A08F100A1
:100774007908F0000800831603178801890183169D
:1007840003138501860188018901831203138501FE
:100794008601880108300A128A1121220A128A115C
:1007A400003083120313A3000130A2008630A1009D
:1007B400A030A0000A128A1158220A128A110A12C1
:1007C4008A1140210A128A11D030F0000030F10061
:1007D4000A128A1152210A128A110230F0000030E2
:1007E400F1000A128A1152210A128A112330F000F0
:1007F4000030F1000A128A1152210A128A110A12D7
:100804008A1149210A128A111A3083120313A9008A
:10081400F730A800A80B0C2CA90B0C2C112C0A12D5
:100824008A1140210A128A11D130F0000030F100FF
:100834000A128A1152210A128A110030F000F100C2
:100844000A128A11F3210A128A11700883120313FF
:10085400A8002808BD000A128A1149210A128A1127
:100864001A3083120313A900F730A800A80B382C00
:10087400A90B382C3D2C0A128A1140210A128A1124
:10088400D030F0000030F1000A128A1152210A120D
:100894008A110130F0000030F1000A128A1152214D
:1008A4000A128A113030F0000030F1000A128A1165
:1008B40052210A128A110A128A1149210A128A1132
:1008C4001A3083120313A900F730A800A80B682C70
:1008D400A90B682C6D2C0A128A1140210A128A1164
:1008E400D130F0000030F1000A128A1152210A12AC
:1008F4008A110030F000F1000A128A11F3210A1261
:100904008A11700883120313A8002808BD000A1274
:100914008A1149210A128A111A3083120313A90079
:10092400F730A800A80B942CA90B942C992C0A122C
:100934008A1140210A128A11D030F0000030F100EF
:100944000A128A1152210A128A110330F00000306F
:10095400F1000A128A1152210A128A110430F0009D
:100964000030F1000A128A1152210A128A110A1265
:100974008A1149210A128A111A3083120313A90019
:10098400F730A800A80BC42CA90BC42CC92C0A123C
:100994008A1140210A128A11D130F0000030F1008E
:1009A4000A128A1152210A128A110030F000F10051
:1009B4000A128A11F3210A128A117008831203138E
:1009C400A8002808BD000A128A1149210A128A11B6
:1009D4001A3083120313A900F730A800A80BF02CD7
:1009E400A90BF02CF52C0800831203133F080A12FC
:1009F4008A1190220A128A11F300730883120313D6
:100A0400BE003C03031D072D082D152D4C30F300AB
:100A14007308B9007530F3007308B8006E30F30042
:100A24007308B700872D02303C06031D1A2D1B2DB9
:100A3400282D4D30F3007308B9006130F3007308BA
:100A4400B8007230F3007308B700872D03303C06FA
:100A5400031D2D2D2E2D3B2D4D30F3007308B900B1
:100A64006930F3007308B8006530F3007308B70009
:100A7400872D04303C06031D402D412D4E2D4A3058
:100A8400F3007308B9007530F3007308B8006530DB
:100A9400F3007308B700872D05303C06031D532D62
:100AA400542D612D5630F3007308B9006930F300FA
:100AB4007308B8006530F3007308B700872D06305B
:100AC4003C06031D662D672D742D5330F300730807
:100AD400B9006130F3007308B8006230F3007308A2
:100AE400B700872D07303C06031D792D7A2D872DFD
:100AF4004430F3007308B9006F30F3007308B80092
:100B04006D30F3007308B700872D0A303B020318D9
:100B14008C2D8D2D9D2D3030F3007308B5003B08CE
:100B24000A128A1190220A128A11F300730883129E
:100B34000313B600CC2D1A303B020318A22DA32DAB
:100B4400B82D3130F3007308B5003B08F03EF300D4
:100B54007308B20032080A128A1190220A128A110A
:100B6400F300730883120313B600CC2D3230F30064
:100B74007308B5003B08E03EF3007308B200320886
:100B84000A128A1190220A128A11F300730883123E
:100B94000313B6000A303A020318D12DD22DE22DE8
:100BA4003030F3007308B3003A080A128A11902215
:100BB4000A128A11F300730883120313B400692E16
:100BC4001A303A020318E72DE82DFD2D3130F300D9
:100BD4007308B3003A08F03EF3007308B200320819
:100BE4000A128A1190220A128A11F30073088312DE
:100BF4000313B400692E2A303A020318022E032E7E
:100C0400182E3230F3007308B3003A08E03EF300C4
:100C14007308B20032080A128A1190220A128A1149
:100C2400F300730883120313B400692E3A303A02B6
:100C340003181D2E1E2E332E3330F3007308B30019
:100C44003A08D03EF3007308B20032080A128A113F
:100C540090220A128A11F300730883120313B4005A
:100C6400692E4A303A020318382E392E4E2E34306B
:100C7400F3007308B3003A08C03EF3007308B200EF
:100C840032080A128A1190220A128A11F300730898
:100C940083120313B400692E5A303A020318532EF8
:100CA400542E692E3530F3007308B3003A08B03E71
:100CB400F3007308B20032080A128A1190220A1251
:100CC4008A11F300730883120313B400692E080019
:100CD4000A128A11BD230A128A110A128A11952155
:100CE4000A128A11F401F40A01300A128A11CF217E
:100CF4000A128A110A128A1113230A128A110A1279
:100D04008A11AE210A128A11F401F40A02300A127D
:100D14008A11CF210A128A110A128A11CF220A12C9
:100D24008A110A128A11AE210A128A110A128A1130
:100D3400F6240A128A110A128A1140210A128A110F
:100D44005030F0000030F1000A128A1152210A12C8
:100D54008A110030F000F1000A128A1152210A129D
:100D64008A110A128A1149210A128A111A3083122D
:100D74000313B100F730B000B00BBE2EB10BBE2E82
:100D8400C32E0A128A1140210A128A115130F0002E
:100D94000030F1000A128A1152210A128A1100301D
:100DA400F000F1000A128A11F3210A128A11700864
:100DB40083120313B0003008BF000A128A114921BC
:100DC4000A128A111A3083120313B100F730B000EB
:100DD400B00BEA2EB10BEA2EEF2E0A128A11402133
:100DE4000A128A11D030F0000030F1000A128A1180
:100DF40052210A128A110230F0000030F1000A1266
:100E04008A1152210A128A110A128A1149210A12DC
:100E14008A111A3083120313B100F730B000B00BFB
:100E2400112FB10B112F162F0A128A1140210A1209
:100E34008A11D130F0000030F1000A128A115221D7
:100E44000A128A110030F000F1000A128A11F3210B
:100E54000A128A11700883120313B0003008BB0011
:100E64000A128A1149210A128A111A3083120313B1
:100E7400B100F730B000B00B3D2FB10B3D2F422F26
:100E84000A128A1140210A128A11D030F00000306F
:100E9400F1000A128A1152210A128A110330F00059
:100EA4000030F1000A128A1152210A128A110A1220
:100EB4008A1149210A128A111A3083120313B100CC
:100EC400F730B000B00B642FB10B642F692F0A12F6
:100ED4008A1140210A128A11D130F0000030F10049
:100EE4000A128A1152210A128A110030F000F1000C
:100EF4000A128A11F3210A128A1170088312031349
:100F0400B0003008BC000A128A1149210A128A1161
:100F14001A3083120313B100F730B000B00B902FD6
:100F2400B10B902F952F0A128A1140210A128A11AF
:100F3400D030F0000030F1000A128A1152210A1256
:100F44008A110130F0000030F1000A128A11522196
:100F54000A128A110A128A1149210A128A111A30B4
:100F640083120313B100F730B000B00BB72FB10BED
:100F7400B72FBC2F0A128A1140210A128A11D130CC
:100F8400F0000030F1000A128A1152210A128A116B
:100F94000030F000F1000A128A11F3210A128A11BA
:100FA400700883120313B0003008BA000A128A11C1
:100FB40049210A128A111A3083120313B100F7303F
:100FC400B000B00BE32FB10BE32FE82F742E0A12FD
:100FD4008A11002883120313B201B301B401B501CD
:100FE400B601B701B801B901BA01BB01BC01BD0129
:0C0FF400BE01BF0183010A128A116A2E9F
:04400E00D420FF3F7C
:00000001FF
