:060000000A128A110C280F
:10000800FE00030EF1000A08F2000A128A15C32E38
:100018000A128A110F28F801F901FA018312031351
:10002800C201C301C401C501C601C701C801C90194
:10003800CA01CB01CC01CD01CE01CF01D001830192
:100048000A128A1127280A128A11AB230A128A1166
:100058000A128A1506270A128A11F701F70A0130CF
:100068000A128A1544270A128A110A128A11D525FA
:100078000A128A110A128A151F270A128A11F70111
:10008800F70A02300A128A1544270A128A110A123C
:100098008A114A250A128A110A128A151F270A127A
:1000A8008A110A128A1101220A128A110A128A1561
:1000B80093260A128A115030F3000030F4000A1215
:1000C8008A15A5260A128A110030F300F4000A12D4
:1000D8008A15A5260A128A110A128A159C260A125E
:1000E8008A111A3083120313C100F730C000C00B05
:1000F8007B28C10B7B2880280A128A1593260A12AE
:100108008A115130F3000030F4000A128A15A5262E
:100118000A128A110030F300F4000A128A1599278E
:100128000A128A11730883120313C0004008D00012
:100138000A128A159C260A128A111A30831203138E
:10014800C100F730C000C00BA728C10BA728AC28F6
:100158000A128A1593260A128A116030F3000030B9
:10016800F4000A128A15A5260A128A1183120313AB
:100178004408C000C1014008F3004108F4000A1215
:100188008A15A5260A128A110A128A159C260A12AD
:100198008A111A3083120313C100F730C000C00B54
:1001A800D328C10BD328D8280A128A1593260A12F5
:1001B8008A116130F3000030F4000A128A15A5266E
:1001C8000A128A110030F300F4000A128A159927DE
:1001D8000A128A11730883120313C0004008C20070
:1001E8000A128A159C260A128A111A3083120313DE
:1001F800C100F730C000C00BFF28C10BFF2804293D
:100208000A128A1593260A128A11D030F300003098
:10021800F4000A128A15A5260A128A110230F30080
:100228000030F4000A128A15A5260A128A110A1249
:100238008A159C260A128A111A3083120313C100E8
:10024800F730C000C00B2629C10B26292B290A121A
:100258008A1593260A128A11D130F3000030F4006F
:100268000A128A15A5260A128A110030F300F40032
:100278000A128A1599270A128A117308831203131E
:10028800C0004008CD000A128A159C260A128A115D
:100298001A3083120313C100F730C000C00B522973
:1002A800C10B522957290A128A1593260A128A1154
:1002B800D030F3000030F4000A128A15A5260A127D
:1002C8008A110330F3000030F4000A128A15A526BB
:1002D8000A128A110A128A159C260A128A111A30E1
:1002E80083120313C100F730C000C00B7929C10B7A
:1002F80079297E290A128A1593260A128A11D13081
:10030800F3000030F4000A128A15A5260A128A1191
:100318000030F300F4000A128A1599270A128A118C
:10032800730883120313C0004008FA000A128A15E2
:100338009C260A128A111A3083120313C100F7305F
:10034800C000C00BA529C10BA529AA290A128A1524
:1003580093260A128A11D030F3000030F4000A12F2
:100368008A15A5260A128A110130F3000030F4001C
:100378000A128A15A5260A128A110A128A159C26BB
:100388000A128A111A3083120313C100F730C00011
:10039800C00BCC29C10BCC29D1290A128A15932666
:1003A8000A128A11D130F3000030F4000A128A15BB
:1003B800A5260A128A110030F300F4000A128A15E1
:1003C80099270A128A11730883120313C000400880
:1003D800F9000A128A159C260A128A111A30831209
:1003E8000313C100F730C000C00BF829C10BF8296E
:1003F800FD2931280A128A110C2883120313500888
:100408000A128A117A270A128A11F60076088312CC
:100418000313CF007A03031D122A132A202A4C3013
:10042800F6007608CB007530F6007608CA006E3004
:10043800F6007608C900942A02307A06031D252A98
:10044800262A332A4D30F6007608CB006130F600B4
:100458007608CA007230F6007608C900942A03307C
:100468007A06031D382A392A462A4D30F6007608BE
:10047800CB006930F6007608CA006530F6007608C9
:10048800C900942A04307A06031D4B2A4C2A592A9B
:100498004A30F6007608CB007530F6007608CA00B8
:1004A8006530F6007608C900942A05307A06031DDF
:1004B8005E2A5F2A6C2A5630F6007608CB0069302F
:1004C800F6007608CA006530F6007608C900942A56
:1004D80006307A06031D712A722A7F2A5330F600E5
:1004E8007608CB006130F6007608CA006230F60064
:1004F8007608C900942A07307A06031D842A852ABB
:10050800942A4430F6007608CB006F30F60076085F
:10051800CA006D30F6007608C900C401C40A942ADE
:100528000A304D020318992A9A2ABD2A3030F6005B
:100538007608C7004D080A128A117A270A128A110A
:10054800F600760883120313C80007304D0203181B
:10055800AE2AAF2AB42A3F308600C401C40A0D2B44
:10056800860107307A060319BA2ABB2A0D2BC40163
:100578000D2B1A304D020318C22AC32AE92A31303A
:10058800F6007608C7004D08F03EF6007608F80039
:1005980078080A128A117A270A128A11F600760850
:1005A80083120313C80007307A060319DC2ADD2AF0
:1005B800DE2AC40108307802031CE32AE42AE72A69
:1005C8003F3086000D2B86010D2B3230F600760861
:1005D800C7004D08E03EF6007608F80078080A12D1
:1005E8008A117A270A128A11F600760883120313F1
:1005F800C8003F30860002307802031C042B052B0C
:10060800062BB12A07307A0603190B2B0C2B0D2B5E
:10061800BB2A0A3079020318122B132B232B3030F4
:10062800F6007608C50079080A128A117A270A1294
:100638008A11F600760883120313C600AA2B1A3013
:1006480079020318282B292B3E2B3130F600760827
:10065800C5007908F03EF6007608F80078080A1216
:100668008A117A270A128A11F60076088312031370
:10067800C600AA2B2A3079020318432B442B592B86
:100688003230F6007608C5007908E03EF6007608B4
:10069800F80078080A128A117A270A128A11F600D5
:1006A800760883120313C600AA2B3A30790203187E
:1006B8005E2B5F2B742B3330F6007608C500790863
:1006C800D03EF6007608F80078080A128A117A27D0
:1006D8000A128A11F600760883120313C600AA2BA1
:1006E8004A3079020318792B7A2B8F2B3430F60095
:1006F8007608C5007908C03EF6007608F800780844
:100708000A128A117A270A128A11F60076088312C9
:100718000313C600AA2B5A3079020318942B952B81
:10072800AA2B3530F6007608C5007908B03EF600E9
:100738007608F80078080A128A117A270A128A11AC
:10074800F600760883120313C600AA2B0800831646
:10075800031788018901831603138501860107138E
:10076800871788018901831203138501860188018F
:1007780008300A128A15C9270A128A118316031328
:100788008C120C160A128A15D8260A128A11003001
:1007980083120313B0000130AF008630AE00A030E2
:1007A800AD000A128A11B9270A128A110A128A158B
:1007B80093260A128A11D030F3000030F4000A128E
:1007C8008A15A5260A128A110230F3000030F400B7
:1007D8000A128A15A5260A128A112130F300003060
:1007E800F4000A128A15A5260A128A110A128A1515
:1007F8009C260A128A111A3083120313B200F730AA
:10080800B100B10B052CB20B052C0A2C0A128A1563
:1008180093260A128A11D130F3000030F4000A122C
:100828008A15A5260A128A110030F300F4000A126C
:100838008A1599270A128A11730883120313B100C3
:100848003108CE000A128A159C260A128A111A301B
:1008580083120313B200F730B100B10B312CB20B85
:10086800312C362C0A128A1593260A128A11D03096
:10087800F3000030F4000A128A15A5260A128A111C
:100888000130F3000030F4000A128A15A5260A1276
:100898008A115930F3000030F4000A128A15A5268F
:1008A8000A128A110A128A159C260A128A111A300B
:1008B80083120313B200F730B100B10B612CB20BF5
:1008C800612C662C0A128A1593260A128A11D130D5
:1008D800F3000030F4000A128A15A5260A128A11BC
:1008E8000030F300F4000A128A1599270A128A11B7
:1008F800730883120313B1003108CE000A128A1557
:100908009C260A128A111A3083120313B200F73098
:10091800B100B10B8D2CB20B8D2C922C0A128A15BA
:1009280093260A128A11D030F3000030F4000A121C
:100938008A15A5260A128A110030F300F4000A125B
:100948008A15A5260A128A115830F3000030F400DF
:100958000A128A15A5260A128A110A128A159C26D5
:100968000A128A111A3083120313B200F730B10049
:10097800B10BBC2CB20BBC2CC12C0A128A159326C5
:100988000A128A11D130F3000030F4000A128A15D5
:10099800A5260A128A110030F300F4000A128A15FB
:1009A80099270A128A11730883120313B1003108B8
:1009B800CE000A128A159C260A128A111A3083124E
:1009C8000313B200F730B100B10BE82CB20BE82CDE
:1009D800ED2C0A128A1593260A128A11D030F300D8
:1009E8000030F4000A128A15A5260A128A1103306B
:1009F800F3000030F4000A128A15A5260A128A119B
:100A08000630F3000030F4000A128A15A5260A12EF
:100A18008A110A128A159C260A128A111A30831220
:100A28000313B200F730B100B10B182DB20B182D1B
:100A38001D2D0A128A1593260A128A11D130F30045
:100A48000030F4000A128A15A5260A128A1100300D
:100A5800F300F4000A128A1599270A128A117308FA
:100A680083120313B1003108CE000A128A159C269E
:100A78000A128A111A3083120313B200F730B10038
:100A8800B10B442DB20B442D492D080083120313DA
:100A98004408031D502D512D932D5030F300730839
:100AA800A0004130F3007308A1005230F30073082E
:100AB800A2005130F3007308A3005530F300730807
:100AC800A4004530F3007308A5004F30F300730805
:100AD800A6005330F3007308A7003A30F3007308F8
:100AE800A8002030F3007308A9003030F300730821
:100AF800AA004F08F3007308AB002030F300730816
:100B0800AC002030F3007308AD002030F300730808
:100B1800AE002030F3007308AF002030D42D4330EE
:100B2800F3007308B0004530F3007308B100523089
:100B3800F3007308B2005230F3007308B300413079
:100B4800F3007308B4004430F3007308B5004F3065
:100B5800F3007308B6002030F3007308B7002030A4
:100B6800F3007308B8002030F3007308B900203090
:100B7800F3007308BA002030F3007308BB0020307C
:100B8800F3007308BC002030F3007308BD00203068
:100B9800F3007308BE002030F3007308BF00303044
:100BA8000800831203134B08AB002B08AE004A0859
:100BB800AB002B08AF004908AB002B08B0002E3063
:100BC800AB002B08B1002030AB002B08B20047085F
:100BD800AB002B08B3004808AB002B08B4003A3030
:100BE800AB002B08B5004508AB002B08B60046083B
:100BF800AB002B08B7002030AB002B08B8000A3038
:100C0800A4000030A5000A30F3000030F4004208C8
:100C1800AB00AC012B08F5002C08F6000A128A116B
:100C28004E260A128A11740883120313A700730848
:100C3800A6000A128A111F270A128A1183120313A7
:100C48002408303EAD002D08B9000A30A400003059
:100C5800A5004208AB00AC012B08A6002C08A70091
:100C68000A128A111F270A128A11831203132408F1
:100C7800303EAD002D08BA00DF30AB002B08BB00BA
:100C88004330AB002B08BC002030AB002B08BD0064
:100C98002E30080083120313A101F41F542E552E81
:100CA8005C2EF309F409F30A0319F40AA101A10A55
:100CB800F61F5F2E602E692EF509F609F50A03194D
:100CC800F60A0130F7007708A106A201A30173080C
:100CD80074040319702E712EA82EA001A00A7F2E6D
:100CE80001300310F30DF40DFF3E031D752E013086
:100CF800F7007708A007F41F822E832E742E013088
:100D08000310A20DA30DFF3E031D842E7408760266
:100D1800031D902E73087502031C932E942E9B2E90
:100D28007308F5027408031CF603F6022214013056
:100D38000310F40CF30CFF3E031D9C2E0130A0029F
:100D4800031DA72EA82E832E21080319AC2EAD2E25
:100D5800B22EA209A309A20A0319A30A2308F400C0
:100D68002208F3000800003083120313AB000030A0
:100D7800AA000030A9000030A8002308220421049A
:100D880020040319C82EC92E162FAC01AC0AD92E7F
:100D98000130F3000310A00DA10DA20DA30DF30B5C
:100DA800CE2E0130F3007308AC07A31FDC2EDD2E16
:100DB800CC2E0130F3000310A80DA90DAA0DAB0D20
:100DC800F30BDF2E23082702031DF42E2208260228
:100DD800031DF42E21082502031DF42E20082402E9
:100DE800031CF72EF82E072F2008A4022108031C45
:100DF800210FA5022208031C220FA6022308031CA8
:100E0800230FA702281401300310A30CA20CA10C75
:100E1800A00CFF3E031D082F0130AC02031D152F47
:100E2800162FDD2E2B08A3002A08A2002908A100EE
:100E38002808A000080083120313AA01A71F252F62
:100E4800262F2D2FA609A709A60A0319A70AAA0162
:100E5800AA0AA51F302F312F362FA409A509A40AE5
:100E68000319A50A2408250403193B2F3C2F6B2FCF
:100E7800A901A90A4A2F01300310A40DA50DFF3EB0
:100E8800031D402F0130A8002808A907A51F4D2FD2
:100E98004E2F3F2F25082702031D542F2408260212
:100EA800031C572F582F5E2F2408A6022508031C61
:100EB800A703A70201300310A50CA40CFF3E031DD5
:100EC8005F2F0130A902031D6A2F6B2F4E2F2A08AE
:100ED80003196F2F702F752FA609A709A60A0319E2
:100EE800A70A2708A5002608A4000800F500902FE7
:100EF8003030B82F3130B82F3230B82F3330B82FC8
:100F08003430B82F3530B82F3630B82F3730B82FA7
:100F18003830B82F3930B82F7508F300F401740849
:100F2800003A0319982F7C2F7308003A03197C2F75
:100F3800013A03197E2F033A0319802F013A031946
:100F4800822F073A0319842F013A0319862F033A8F
:100F58000319882F013A03198A2F0F3A03198C2F86
:100F6800013A03198E2F7C2F0800283083120313AF
:100F78009400831603139101831203132D08F400C0
:100F88002E08F5002F08F6003008F700023003108D
:100F9800F40DF50DF60DF70DFF3E031DCB2F770869
:100FA800A3007608A2007508A1007408A00000300C
:100FB800A7007A30A6001230A5000030A4000A125B
:100FC8008A11B7260A128A11831203132008FF3EDA
:100FD80083160313930094018715071608008316D8
:100FE80003131419F82FF92FF32F11081F39031DB4
:080FF800FE2FFF2FF32F08006C
:101D1A00F300730883120313880008000A128A1159
:101D2A00F3270A128A1583160313111408000A12DC
:101D3A008A11F3270A128A1583160313111508004C
:101D4A000A128A11F3270A128A15730883120313D7
:101D5A0093000800F50075080A128A158D260A12E2
:101D6A008A15831203138914091109140D30F4001A
:101D7A00F40BBD2E831203130910080083120313F8
:101D8A000C1EC82EC92ED12E0A128A156A270A12CB
:101D9A008A15831203130C1272088A00710E8300CB
:101DAA00FE0E7E0E09008316031318121815181357
:101DBA00831603178711831603139A013330990088
:101DCA0083120313981718131816831603139816F9
:101DDA000800F60076080A128A158D260A128A1554
:101DEA00831203138910091109140730F5007D3095
:101DFA00F400F40BFE2EF50BFE2E831203130910CA
:101E0A00080038300A128A15EE260A128A15063098
:101E1A000A128A15EE260A128A150C300A128A1537
:101E2A00EE260A128A1580300A128A15EE260A123E
:101E3A008A15080083120313A200A001A101382FFA
:101E4A0020082207F6007608840000080A128A157C
:101E5A00AF260A128A15013083120313A00703184A
:101E6A00A10A0030A10720082207F600760884009C
:101E7A0083130008031D422F432F252F08008312C6
:101E8A000313A1002103031D4B2F4C2F582F770852
:101E9A007F3EA0002008A20022080A128A15EE2618
:101EAA000A128A15692F02302106031D5D2F5E2F43
:101EBA00692F7708BF3EA0002008A20022080A1254
:101ECA008A15EE260A128A1508000130F0007008F9
:101EDA0083120313C3074303031D742F752F772F30
:101EEA003130990002304306031D7C2F7D2F7F2F4E
:101EFA003030990003304306031D842F852F872F26
:101F0A002C30990004304306031D8C2F8D2F8F2F00
:101F1A004F08990005304306031D942F952F982FDB
:101F2A000D309900C30108000A128A11F3270A1218
:101F3A008A158316031391150A128A11F3270A12B6
:101F4A008A15831203131308F500F6017508A00019
:101F5A007608A1000A128A11F3270A128A15730356
:101F6A007404031DB92FBA2FBE2F831603139112BF
:101F7A00C12F831603139116111683120313210816
:101F8A00F4002008F3000800F500E92F8316031374
:101F9A000F088F3940388F000F14FF2F8316031351
:101FAA000F088F3950388F000F14FF2F8316031331
:101FBA000F088F3960388F000F14FF2F7030831687
:101FCA0003138F040F14FF2F7508F300F40174082C
:101FDA00003A0319F12FFF2F7308013A0319CB2F87
:101FEA00033A0319D32F063A0319DB2F0C3A0319C4
:061FFA00E32FFF2F080099
:04400E00D420FF3F7C
:00000001FF
