:100000000A128A11F32FF2002328831603130F0814
:100010008F3940388F000F143928831603130F08C7
:100020008F3950388F000F143928831603130F08A7
:100030008F3960388F000F143928703083160313FE
:100040008F040F1439287208F000F1017108003A8A
:1000500003192B2839287008013A03190528033A97
:1000600003190D28063A031915280C3A03191D28FF
:1000700039280800283083120313940083160313D1
:100080009101831203132008A4002108A50022086F
:10009000A6002308A70002300310A40DA50DA60D8D
:1000A000A70DFF3E031D4C282708F3002608F20089
:1000B0002508F1002408F0000030F7007A30F6003F
:1000C0001230F5000030F4000A128A110C210A12D5
:1000D0008A117008FF3E831603139300940187155D
:1000E00007160800F20088283030B0283130B028D8
:1000F0003230B0283330B0283430B0283530B02812
:100100003630B0283730B0283830B0283930B028F1
:100110007208F000F1017108003A03199028742860
:100120007008003A03197428013A03197628033A33
:1001300003197828013A03197A28073A03197C2809
:10014000013A03197E28033A03198028013A03195A
:1001500082280F3A03198428013A03198628742843
:10016000080083120313A101FC1FB728B828BF2879
:10017000FB09FC09FB0A0319FC0AA101A10AFA1FE9
:10018000C228C328C828F909FA09F90A0319FA0A82
:1001900079087A040319CD28CE28FD28A001A00AE9
:1001A000DC2801300310F90DFA0DFF3E031DD228A3
:1001B0000130FD007D08A007FA1FDF28E028D128C4
:1001C0007A087C02031DE62879087B02031CE928D3
:1001D000EA28F0287908FB027A08031CFC03FC02D9
:1001E00001300310FA0CF90CFF3E031DF128013019
:1001F000A002031DFC28FD28E0282108031901297D
:1002000002290729FB09FC09FB0A0319FC0A7C08DF
:10021000FA007B08F90008000030FC000030FB0009
:100220000030FA000030F9007308720471047004A1
:1002300003191B291C296929FD01FD0A2C290130FC
:10024000F8000310F00DF10DF20DF30DF80B21295C
:100250000130F8007808FD07F31F2F2930291F29E6
:100260000130F8000310F90DFA0DFB0DFC0DF80B31
:10027000322973087702031D472972087602031D8D
:10028000472971087502031D472970087402031C71
:100290004A294B295A297008F4027108031C710F6E
:1002A000F5027208031C720FF6027308031C730F29
:1002B000F702791401300310F30CF20CF10CF00C7E
:1002C000FF3E031D5B290130FD02031D68296929DA
:1002D00030297C08F3007B08F2007A08F1007908E5
:1002E000F0000800F601F11F762977297E29F00930
:1002F000F109F00A0319F10AF601F60AF31F812940
:1003000082298B29F209F309F20A0319F30A013051
:10031000F4007408F606F701F80170087104031977
:1003200092299329CA29F501F50AA1290130031060
:10033000F00DF10DFF3E031D97290130F400740804
:10034000F507F11FA429A529962901300310F70DFF
:10035000F80DFF3E031DA62971087302031DB22983
:1003600070087202031CB529B629BD297008F20273
:100370007108031CF303F302771401300310F10C2E
:10038000F00CFF3E031DBE290130F502031DC929F3
:10039000CA29A52976080319CE29CF29D429F70916
:1003A000F809F70A0319F80A7808F1007708F0004D
:1003B0000800831203134B08A2002208A5004A0874
:1003C000A2002208A6004908A2002208A7002E3099
:1003D000A2002208A8002030A2002208A900470895
:1003E000A2002208AA004808A2002208AB003A3066
:1003F000A2002208AC004508A2002208AD00460871
:10040000A2002208AE002030A2002208AF000A306D
:10041000F9000030FA000A30F0000030F100420824
:10042000A200A3012208F2002308F3000A128A1195
:1004300072210A128A117108FC007008FB000A126E
:100440008A11B1200A128A117908303E83120313EF
:10045000A4002408B0000A30F9000030FA00420875
:10046000A200A3012208FB002308FC000A128A1143
:10047000B1200A128A117908303E83120313A400B6
:100480002408B100DF30A2002208B2004330A200ED
:100490002208B3002030A2002208B4002530080052
:1004A000831203134408031D562A572A992A5030F1
:1004B000F0007008A0004130F0007008A100523038
:1004C000F0007008A2005130F0007008A300553011
:1004D000F0007008A4004530F0007008A5004F300F
:1004E000F0007008A6005330F0007008A7003A3002
:1004F000F0007008A8002030F0007008A90030302B
:10050000F0007008AA005108F0007008AB0020301D
:10051000F0007008AC002030F0007008AD00203012
:10052000F0007008AE002030F0007008AF002030FE
:10053000DA2A4330F0007008B0004530F00070084F
:10054000B1005230F0007008B2005230F000700874
:10055000B3004130F0007008B4004430F00070087F
:10056000B5004F30F0007008B6002030F000700881
:10057000B7002030F0007008B8002030F00070089C
:10058000B9002030F0007008BA002030F000700888
:10059000BB002030F0007008BC002030F000700874
:1005A000BD002030F0007008BE002030F000700860
:1005B000BF003030080083160317880189018316B5
:1005C00003138501860188018901831203138501C4
:1005D0008601880108300A128A1103200A128A1142
:1005E000003083120313A3000130A2008630A10063
:1005F000A030A0000A128A113A200A128A110A12A7
:100600008A151F270A128A11D030F0000030F1003D
:100610000A128A1531270A128A110230F0000030BE
:10062000F1000A128A1531270A128A112130F000CE
:100630000030F1000A128A1531270A128A110A12B3
:100640008A1528270A128A111A3083120313A90067
:10065000F730A800A80B2A2BA90B2A2B2F2B0A1244
:100660008A151F270A128A11D130F0000030F100DC
:100670000A128A1531270A128A110030F000F1009F
:100680000A128A15D2270A128A11700883120313DC
:10069000A8002808D0000A128A1528270A128A11F1
:1006A0001A3083120313A900F730A800A80B562BA9
:1006B000A90B562B5B2B0A128A151F270A128A11C7
:1006C000D030F0000030F1000A128A1531270A12EA
:1006D0008A110130F0000030F1000A128A1531272A
:1006E0000A128A115930F0000030F1000A128A15FE
:1006F00031270A128A110A128A1528270A128A112A
:100700001A3083120313A900F730A800A80B862B18
:10071000A90B862B8B2B0A128A151F270A128A1106
:10072000D130F0000030F1000A128A1531270A1288
:100730008A110030F000F1000A128A15D2270A123D
:100740008A11700883120313A8002808D0000A1227
:100750008A1528270A128A111A3083120313A90056
:10076000F730A800A80BB22BA90BB22BB72B0A129B
:100770008A151F270A128A11D030F0000030F100CC
:100780000A128A1531270A128A110030F000F1008E
:100790000A128A1531270A128A115830F0000030E7
:1007A000F1000A128A1531270A128A110A128A15D3
:1007B00028270A128A111A3083120313A900F7306E
:1007C000A800A80BE12BA90BE12BE62B0A128A1536
:1007D0001F270A128A11D130F0000030F1000A12EE
:1007E0008A1531270A128A110030F000F1000A122E
:1007F0008A15D2270A128A11700883120313A800DF
:100800002808D0000A128A1528270A128A111A30DD
:1008100083120313A900F730A800A80B0D2CA90B15
:100820000D2C122C0A128A151F270A128A11D03099
:10083000F0000030F1000A128A1531270A128A11DD
:100840000330F0000030F1000A128A1531270A1235
:100850008A110630F0000030F1000A128A153127A3
:100860000A128A110A128A1528270A128A111A30C6
:1008700083120313A900F730A800A80B3D2CA90B85
:100880003D2C422C0A128A151F270A128A11D130D8
:10089000F0000030F1000A128A1531270A128A117D
:1008A0000030F000F1000A128A15D2270A128A11CC
:1008B000700883120313A8002808D0000A128A15B2
:1008C00028270A128A111A3083120313A900F7305D
:1008D000A800A80B692CA90B692C6E2C08008312A8
:1008E000031352080A128A1172200A128A11F300A5
:1008F000730883120313D1004F03031D802C812C36
:100900008E2C4C30F3007308CB007530F300730865
:10091000CA006E30F3007308C900022D02304F0682
:10092000031D932C942CA12C4D30F3007308CB00A5
:100930006130F3007308CA007230F3007308C90015
:10094000022D03304F06031DA62CA72CB42C4D30CE
:10095000F3007308CB006930F3007308CA006530F8
:10096000F3007308C900022D04304F06031DB92C93
:10097000BA2CC72C4A30F3007308CB007530F30053
:100980007308CA006530F3007308C900022D0530F2
:100990004F06031DCC2CCD2CDA2C5630F3007308F7
:1009A000CB006930F3007308CA006530F3007308A8
:1009B000C900022D06304F06031DDF2CE02CED2C64
:1009C0005330F3007308CB006130F3007308CA00A2
:1009D0006230F3007308C900022D07304F06031D73
:1009E000F22CF32C022D4430F3007308CB006F304F
:1009F000F3007308CA006D30F3007308C900C40126
:100A0000C40A022D0A304E020318072D082D2B2D83
:100A10003030F3007308C7004E080A128A117220A2
:100A20000A128A11F300730883120313C8000730F7
:100A30004E0203181C2D1D2D222D3F308600C401AF
:100A4000C40A7B2D860107304F060319282D292D56
:100A50007B2DC4017B2D1A304E020318302D312D11
:100A6000572D3130F3007308C7004E08F03EF300F5
:100A70007308C30043080A128A1172200A128A11ED
:100A8000F300730883120313C80007304F060319DD
:100A90004A2D4B2D4C2DC40108304302031C512D0F
:100AA000522D552D3F3086007B2D86017B2D323017
:100AB000F3007308C7004E08E03EF3007308C3005C
:100AC00043080A128A1172200A128A11F30073086D
:100AD00083120313C8003F30860002304302031C18
:100AE000722D732D742D1F2D07304F060319792D8C
:100AF0007A2D7B2D292D0A304D020318802D812D52
:100B0000912D3030F3007308C5004D080A128A1188
:100B100072200A128A11F300730883120313C600AD
:100B2000182E1A304D020318962D972DAC2D31300A
:100B3000F3007308C5004D08F03EF3007308C300CE
:100B400043080A128A1172200A128A11F3007308EC
:100B500083120313C600182E2A304D020318B12D3C
:100B6000B22DC72D3230F3007308C5004D08E03EAA
:100B7000F3007308C30043080A128A1172200A1294
:100B80008A11F300730883120313C600182E3A303B
:100B90004D020318CC2DCD2DE22D3330F300730818
:100BA000C5004D08D03EF3007308C30043080A1285
:100BB0008A1172200A128A11F30073088312031338
:100BC000C600182E4A304D020318E72DE82DFD2DE2
:100BD0003430F3007308C5004D08C03EF3007308BD
:100BE000C30043080A128A1172200A128A11F30004
:100BF000730883120313C600182E5A304D020318CF
:100C0000022E032E182E3530F3007308C5004D0850
:100C1000B03EF3007308C30043080A128A11722021
:100C20000A128A11F300730883120313C600182EE8
:100C300008000A128A11DB220A128A110A128A1586
:100C400074270A128A11F401F40A01300A128A1573
:100C5000AE270A128A110A128A11D9210A128A11A0
:100C60000A128A158D270A128A11F401F40A023039
:100C70000A128A15AE270A128A110A128A11502204
:100C80000A128A110A128A158D270A128A110A126B
:100C90008A116F240A128A110A128A151F270A1252
:100CA0008A115030F0000030F1000A128A15312705
:100CB0000A128A110030F000F1000A128A15312759
:100CC0000A128A110A128A1528270A128A111A3062
:100CD00083120313C100F730C000C00B6D2EC10B8F
:100CE0006D2E722E0A128A151F270A128A11513090
:100CF000F0000030F1000A128A1531270A128A1119
:100D00000030F000F1000A128A15D2270A128A1167
:100D1000700883120313C0004008D2000A128A151B
:100D200028270A128A111A3083120313C100F730E0
:100D3000C000C00B992EC10B992E9E2E0A128A1547
:100D40001F270A128A116030F0000030F1000A12E9
:100D50008A1531270A128A11831203134408C0002E
:100D6000C1014008F0004108F1000A128A1531273C
:100D70000A128A110A128A1528270A128A111A30B1
:100D800083120313C100F730C000C00BC52EC10B86
:100D9000C52ECA2E0A128A151F270A128A1161301F
:100DA000F0000030F1000A128A1531270A128A1168
:100DB0000030F000F1000A128A15D2270A128A11B7
:100DC000700883120313C0004008C2000A128A157B
:100DD00028270A128A111A3083120313C100F73030
:100DE000C000C00BF12EC10BF12EF62E0A128A158F
:100DF0001F270A128A11D030F0000030F1000A12C9
:100E00008A1531270A128A110230F0000030F100F1
:100E10000A128A1531270A128A110A128A152827FE
:100E20000A128A111A3083120313C100F730C0006E
:100E3000C00B182FC10B182F1D2F0A128A151F2740
:100E40000A128A11D130F0000030F1000A128A151E
:100E500031270A128A110030F000F1000A128A15B7
:100E6000D2270A128A11700883120313C0004008A7
:100E7000CE000A128A1528270A128A111A30831204
:100E80000313C100F730C000C00B442FC10B442F27
:100E9000492F0A128A151F270A128A11D030F00032
:100EA0000030F1000A128A1531270A128A11033024
:100EB000F0000030F1000A128A1531270A128A1157
:100EC0000A128A1528270A128A111A30831203136C
:100ED000C100F730C000C00B6B2FC10B6B2F702F00
:100EE0000A128A151F270A128A11D130F000003029
:100EF000F1000A128A1531270A128A110030F00017
:100F0000F1000A128A15D2270A128A117008831278
:100F10000313C0004008CF000A128A1528270A12BE
:100F20008A111A3083120313C100F730C000C00BBE
:100F3000972FC10B972F9C2F0A128A151F270A1271
:100F40008A11D030F0000030F1000A128A153127E2
:100F50000A128A110130F0000030F1000A128A15DD
:100F600031270A128A110A128A1528270A128A11B1
:100F70001A3083120313C100F730C000C00BBE2F1C
:100F8000C10BBE2FC32F0A128A151F270A128A11FE
:100F9000D130F0000030F1000A128A1531270A1210
:100FA0008A110030F000F1000A128A15D2270A12C5
:100FB0008A11700883120313C0004008CD000A1282
:100FC0008A1528270A128A111A3083120313C100C6
:100FD000F730C000C00BEA2FC10BEA2FEF2F232EF2
:100FE0000A128A11002883134230840053300A12F7
:100FF0008A1517270A128A1183010A128A11192EDB
:101E2200F000700883120313880008006400800128
:101E3200840A0406031900340406182F0A128A15AC
:101E42003B270A128A1583160313111408000A127B
:101E52008A153B270A128A158316031311150800E7
:101E62000A128A153B270A128A1570088312031375
:101E720093000800831603131419402F412F3B2FA0
:101E820011081F39031D462F472F3B2F0800F20070
:101E920072080A128A1511270A128A15831203136D
:101EA2008914091109140D30F100F10B562F831218
:101EB200031309100800F30073080A128A15112788
:101EC2000A128A15831203138910091109140730A3
:101ED200F2007D30F100F10B6C2FF20B6C2F8312AC
:101EE20003130910080038300A128A155C270A12F7
:101EF2008A1506300A128A155C270A128A150C30D6
:101F02000A128A155C270A128A1580300A128A156B
:101F12005C270A128A150800F600F401F501A22FC7
:101F220074087607F3007308840000080A128A1501
:101F320048270A128A150130F4070318F50A0030FF
:101F4200F50774087607F30073088400831300080A
:101F5200031DAC2FAD2F912F0800F6007603031D51
:101F6200B32FB42FC02F74087F3EF5007508F70019
:101F720077080A128A155C270A128A15D12F0230B5
:101F82007606031DC52FC62FD12F7408BF3EF5005C
:101F92007508F70077080A128A155C270A128A1553
:101FA20008000A128A153B270A128A1583160313A0
:101FB20091150A128A153B270A128A1583120313F6
:101FC2001308F200F3017208F4007308F5000A1214
:101FD2008A153B270A128A1570037104031DF22F1A
:101FE200F32FF72F831603139112FA2F831603137D
:0E1FF200911611167508F1007408F000080031
:04400E00D420FF3F7C
:00000001FF
